:020000040800F2
:100000000080012091030008F503000801040008A6
:100010000D04000819040008250400080000000071
:100020000000000000000000000000003104000893
:100030003D040008000000004904000855040008C1
:10004000610400086D0400087904000885040008B4
:10005000910400089D040008A9040008B5040008E4
:10006000C1040008CD040008D9040008E504000814
:10007000F1040008FD040008090500081505000842
:10008000210500082D050008390500084505000870
:10009000510500085D0500086905000875050008A0
:1000A000810500088D05000899050008A5050008D0
:1000B000B1050008BD050008C9050008D505000800
:1000C000E1050008ED050008F9050008050600082F
:1000D000110600081D06000829060008350600085C
:1000E000410600084D06000859060008650600088C
:1000F000710600087D0600088906000895060008BC
:10010000A1060008AD060008B9060008C5060008EB
:10011000D1060008DD060008E9060008F50600081B
:10012000010700080D070008190700082507000847
:10013000310700083D070008490700085507000877
:10014000610700086D0700087907000885070008A7
:10015000910700089D070008A9070008B5070008D7
:10016000C1070008CD070008D9070008E507000807
:10017000F1070008FD070008090800081508000835
:10018000210800082D080008390800084508000863
:10019000510800085D080008690800087508000893
:1001A000810800088D080008990800080000000078
:1001B00080B582B000AF0223FB7100F05BF8074B03
:1001C0001B68074A934201D10023FB7100F0A0F89D
:1001D000FB7918460837BD4680BD00BF00000020EF
:1001E00000B4C40480B582B000AF0346FB71FB7954
:1001F000012B04D10821042000F0F0FB06E0FB797C
:10020000002B03D10221012000F0E8FB00BF0837DA
:10021000BD4680BD80B582B000AF0346FB71FB795F
:10022000012B04D10821042000F0F2FB06E0FB7949
:10023000002B03D10221012000F0EAFB00BF0837A8
:10024000BD4680BD80B582B000AF0346FB71FB792F
:10025000012B04D10821042000F0F6FB06E0FB7915
:10026000002B03D10221012000F0EEFB00BF083774
:10027000BD4680BD80B483B000AF4FF47A737B601D
:1002800000233B601D4B1B681C4A43F4216343F071
:10029000020313601A4B1B68194A43F001231360D1
:1002A0007B68013B7B607B68002B0DD0144B1B6887
:1002B0001A0E134B1B681B0A134003F001033B602B
:1002C0003B68002BECD000E000BF3B68012B0FD156
:1002D0000C4B1B680B4A43F00103136000BF094B32
:1002E0001B6803F00C03042BF9D1074B074A1A6073
:1002F00000BF0C37BD4680BC704700BF0C100240E9
:1003000000100240081002400000002000B4C404A5
:1003100080B586B000AF01237B600023BB60022361
:10032000FB6000233B61042000F0F4FA3B1D1A46F9
:100330000821042000F002FB012000F0EBFA3B1D35
:100340001A460221012000F0F9FA00BF1837BD4615
:1003500080BD000080B582B000AFFFF729FF01200B
:10036000FFF740FF0020FFF755FF00237B6002E00E
:100370007B6801337B607B68044A9342F8D9012093
:10038000FFF760FF0020FFF75DFFEEE73F420F0041
:1003900080B500AFDFF858D00E4B0F4A9A600D4B76
:1003A0005B690C4A43F0080353610C4A0C4BD31AA7
:1003B0009B101A460A490B4800F077FA0A4A0B4B81
:1003C000D31A9B101946094800F08CFAFFF7C2FFB8
:1003D000FEE700BF00ED00E000000008280000205C
:1003E00000000020800A00082800002028000020CB
:1003F0000080012080B500AF00F054FA00BF80BD3E
:1004000080B500AF00F04EFA00BF80BD80B500AFF0
:1004100000F048FA00BF80BD80B500AF00F042FA9E
:1004200000BF80BD80B500AF00F03CFA00BF80BDCA
:1004300080B500AF00F036FA00BF80BD80B500AFD8
:1004400000F030FA00BF80BD80B500AF00F02AFA9E
:1004500000BF80BD80B500AF00F024FA00BF80BDB2
:1004600080B500AF00F01EFA00BF80BD80B500AFC0
:1004700000F018FA00BF80BD80B500AF00F012FA9E
:1004800000BF80BD80B500AF00F00CFA00BF80BD9A
:1004900080B500AF00F006FA00BF80BD80B500AFA8
:1004A00000F000FA00BF80BD80B500AF00F0FAF99F
:1004B00000BF80BD80B500AF00F0F4F900BF80BD83
:1004C00080B500AF00F0EEF900BF80BD80B500AF91
:1004D00000F0E8F900BF80BD80B500AF00F0E2F9A0
:1004E00000BF80BD80B500AF00F0DCF900BF80BD6B
:1004F00080B500AF00F0D6F900BF80BD80B500AF79
:1005000000F0D0F900BF80BD80B500AF00F0CAF99F
:1005100000BF80BD80B500AF00F0C4F900BF80BD52
:1005200080B500AF00F0BEF900BF80BD80B500AF60
:1005300000F0B8F900BF80BD80B500AF00F0B2F99F
:1005400000BF80BD80B500AF00F0ACF900BF80BD3A
:1005500080B500AF00F0A6F900BF80BD80B500AF48
:1005600000F0A0F900BF80BD80B500AF00F09AF99F
:1005700000BF80BD80B500AF00F094F900BF80BD22
:1005800080B500AF00F08EF900BF80BD80B500AF30
:1005900000F088F900BF80BD80B500AF00F082F99F
:1005A00000BF80BD80B500AF00F07CF900BF80BD0A
:1005B00080B500AF00F076F900BF80BD80B500AF18
:1005C00000F070F900BF80BD80B500AF00F06AF99F
:1005D00000BF80BD80B500AF00F064F900BF80BDF2
:1005E00080B500AF00F05EF900BF80BD80B500AF00
:1005F00000F058F900BF80BD80B500AF00F052F99F
:1006000000BF80BD80B500AF00F04CF900BF80BDD9
:1006100080B500AF00F046F900BF80BD80B500AFE7
:1006200000F040F900BF80BD80B500AF00F03AF99E
:1006300000BF80BD80B500AF00F034F900BF80BDC1
:1006400080B500AF00F02EF900BF80BD80B500AFCF
:1006500000F028F900BF80BD80B500AF00F022F99E
:1006600000BF80BD80B500AF00F01CF900BF80BDA9
:1006700080B500AF00F016F900BF80BD80B500AFB7
:1006800000F010F900BF80BD80B500AF00F00AF99E
:1006900000BF80BD80B500AF00F004F900BF80BD91
:1006A00080B500AF00F0FEF800BF80BD80B500AFA0
:1006B00000F0F8F800BF80BD80B500AF00F0F2F8A0
:1006C00000BF80BD80B500AF00F0ECF800BF80BD7A
:1006D00080B500AF00F0E6F800BF80BD80B500AF88
:1006E00000F0E0F800BF80BD80B500AF00F0DAF8A0
:1006F00000BF80BD80B500AF00F0D4F800BF80BD62
:1007000080B500AF00F0CEF800BF80BD80B500AF6F
:1007100000F0C8F800BF80BD80B500AF00F0C2F89F
:1007200000BF80BD80B500AF00F0BCF800BF80BD49
:1007300080B500AF00F0B6F800BF80BD80B500AF57
:1007400000F0B0F800BF80BD80B500AF00F0AAF89F
:1007500000BF80BD80B500AF00F0A4F800BF80BD31
:1007600080B500AF00F09EF800BF80BD80B500AF3F
:1007700000F098F800BF80BD80B500AF00F092F89F
:1007800000BF80BD80B500AF00F08CF800BF80BD19
:1007900080B500AF00F086F800BF80BD80B500AF27
:1007A00000F080F800BF80BD80B500AF00F07AF89F
:1007B00000BF80BD80B500AF00F074F800BF80BD01
:1007C00080B500AF00F06EF800BF80BD80B500AF0F
:1007D00000F068F800BF80BD80B500AF00F062F89F
:1007E00000BF80BD80B500AF00F05CF800BF80BDE9
:1007F00080B500AF00F056F800BF80BD80B500AFF7
:1008000000F050F800BF80BD80B500AF00F04AF89E
:1008100000BF80BD80B500AF00F044F800BF80BDD0
:1008200080B500AF00F03EF800BF80BD80B500AFDE
:1008300000F038F800BF80BD80B500AF00F032F89E
:1008400000BF80BD80B500AF00F02CF800BF80BDB8
:1008500080B500AF00F026F800BF80BD80B500AFC6
:1008600000F020F800BF80BD80B500AF00F01AF89E
:1008700000BF80BD80B500AF00F014F800BF80BDA0
:1008800080B500AF00F00EF800BF80BD80B500AFAE
:1008900000F008F800BF80BD80B500AF00F002F89E
:1008A00000BF80BD80B400AFFEE780B485B000AF6C
:1008B000F860B9607A600CE0FB681A68BB681A607F
:1008C000FB680433FB60BB680433BB607B68013B9F
:1008D0007B607B68002BEFD100BF00BF1437BD46A3
:1008E00080BC704780B483B000AF7860396008E0A6
:1008F0007B6800221A607B6804337B603B68013BA5
:100900003B603B68002BF3D100BF00BF0C37BD46F6
:1009100080BC704780B483B000AF7860064B1A6823
:1009200001217B6801FA03F3034913430B6000BF05
:100930000C37BD4680BC70474C10024080B487B075
:1009400000AFF860B9607A60234AFB6852F8233040
:100950007B617B681A68BB685B009A407B691A60A0
:100960007B685A68BB689A407B695A607B689A6862
:10097000BB685B009A407B699A607B68DA68BB68F9
:100980005B009A407B69DA607B681B68022B1DD193
:10099000BB68072B0BD87B69DA697B681969BB6870
:1009A0009B0001FA03F31A437B69DA610EE0BB682E
:1009B0000F2B0BD87B691A6A7B681969BB68083BE7
:1009C0009B0001FA03F31A437B691A6200BF1C37CC
:1009D000BD4680BC704700BF0400002080B485B0D5
:1009E00000AF78603960094A7B6852F82330FB60B9
:1009F000FB689A6901213B6801FA03F31A43FB681B
:100A00009A6100BF1437BD4680BC704704000020C7
:100A100080B485B000AF786039600A4A7B6852F8CC
:100A20002330FB60FB689A693B681033012101FAAF
:100A300003F31A43FB689A6100BF1437BD4680BCBC
:100A4000704700BF0400002080B485B000AF78601C
:100A50003960094A7B6852F82330FB60FB685A69A9
:100A600001213B6801FA03F35A40FB685A6100BF59
:100A70001437BD4680BC7047040000200000000011
:100A800000093D000000004800040048000800483C
:100A9000000C0048001000480014004800180048EE
:080AA000001C00480020004882
:04000005080003915B
:00000001FF
