:020000040800F2
:1000000000800120B10100086502000871020008AB
:100010007D02000889020008950200080000000027
:10002000000000000000000000000000A102000825
:10003000AD02000800000000B9020008C502000877
:10004000D1020008DD020008E9020008F5020008FC
:10005000010300080D030008190300082503000828
:10006000310300083D030008490300085503000858
:10007000610300086D030008790300088503000888
:10008000910300089D030008A9030008B5030008B8
:10009000C1030008CD030008D9030008E5030008E8
:1000A000F1030008FD030008090400081504000816
:1000B000210400082D040008390400084504000844
:1000C000510400085D040008690400087504000874
:1000D000810400088D04000899040008A5040008A4
:1000E000B1040008BD040008C9040008D5040008D4
:1000F000E1040008ED040008F90400080505000803
:10010000110500081D05000829050008350500082F
:10011000410500084D05000859050008650500085F
:10012000710500087D05000889050008950500088F
:10013000A1050008AD050008B9050008C5050008BF
:10014000D1050008DD050008E9050008F5050008EF
:10015000010600080D06000819060008250600081B
:10016000310600083D06000849060008550600084B
:10017000610600086D06000879060008850600087B
:10018000910600089D060008A9060008B5060008AB
:10019000C1060008CD060008D9060008E5060008DB
:1001A000F1060008FD06000809070008000000002D
:1001B00080B588B000AFDFF8A8D0224B224A9A6001
:1001C000204B5B691F4A43F0080353611F4A204BD1
:1001D000D31A9B101A461F4B3B611D4BFB60BA6044
:1001E000BB689B087B600CE03B691A68FB681A607F
:1001F0003B6904333B61FB680433FB607B68013B74
:100200007B607B68002BEFD100BF134A134BD31ADE
:100210009B101A46114BFB61BA61BB699B087B615D
:1002200008E0FB6900221A60FB690433FB617B690B
:10023000013B7B617B69002BF3D100BF00F06EFABC
:10024000FEE700BF00ED00E000000008080000200D
:1002500000000020380700080800002008000020E7
:100260000080012080B500AF00F054FA00BF80BDCF
:1002700080B500AF00F04EFA00BF80BD80B500AF82
:1002800000F048FA00BF80BD80B500AF00F042FA30
:1002900000BF80BD80B500AF00F03CFA00BF80BD5C
:1002A00080B500AF00F036FA00BF80BD80B500AF6A
:1002B00000F030FA00BF80BD80B500AF00F02AFA30
:1002C00000BF80BD80B500AF00F024FA00BF80BD44
:1002D00080B500AF00F01EFA00BF80BD80B500AF52
:1002E00000F018FA00BF80BD80B500AF00F012FA30
:1002F00000BF80BD80B500AF00F00CFA00BF80BD2C
:1003000080B500AF00F006FA00BF80BD80B500AF39
:1003100000F000FA00BF80BD80B500AF00F0FAF930
:1003200000BF80BD80B500AF00F0F4F900BF80BD14
:1003300080B500AF00F0EEF900BF80BD80B500AF22
:1003400000F0E8F900BF80BD80B500AF00F0E2F931
:1003500000BF80BD80B500AF00F0DCF900BF80BDFC
:1003600080B500AF00F0D6F900BF80BD80B500AF0A
:1003700000F0D0F900BF80BD80B500AF00F0CAF931
:1003800000BF80BD80B500AF00F0C4F900BF80BDE4
:1003900080B500AF00F0BEF900BF80BD80B500AFF2
:1003A00000F0B8F900BF80BD80B500AF00F0B2F931
:1003B00000BF80BD80B500AF00F0ACF900BF80BDCC
:1003C00080B500AF00F0A6F900BF80BD80B500AFDA
:1003D00000F0A0F900BF80BD80B500AF00F09AF931
:1003E00000BF80BD80B500AF00F094F900BF80BDB4
:1003F00080B500AF00F08EF900BF80BD80B500AFC2
:1004000000F088F900BF80BD80B500AF00F082F930
:1004100000BF80BD80B500AF00F07CF900BF80BD9B
:1004200080B500AF00F076F900BF80BD80B500AFA9
:1004300000F070F900BF80BD80B500AF00F06AF930
:1004400000BF80BD80B500AF00F064F900BF80BD83
:1004500080B500AF00F05EF900BF80BD80B500AF91
:1004600000F058F900BF80BD80B500AF00F052F930
:1004700000BF80BD80B500AF00F04CF900BF80BD6B
:1004800080B500AF00F046F900BF80BD80B500AF79
:1004900000F040F900BF80BD80B500AF00F03AF930
:1004A00000BF80BD80B500AF00F034F900BF80BD53
:1004B00080B500AF00F02EF900BF80BD80B500AF61
:1004C00000F028F900BF80BD80B500AF00F022F930
:1004D00000BF80BD80B500AF00F01CF900BF80BD3B
:1004E00080B500AF00F016F900BF80BD80B500AF49
:1004F00000F010F900BF80BD80B500AF00F00AF930
:1005000000BF80BD80B500AF00F004F900BF80BD22
:1005100080B500AF00F0FEF800BF80BD80B500AF31
:1005200000F0F8F800BF80BD80B500AF00F0F2F831
:1005300000BF80BD80B500AF00F0ECF800BF80BD0B
:1005400080B500AF00F0E6F800BF80BD80B500AF19
:1005500000F0E0F800BF80BD80B500AF00F0DAF831
:1005600000BF80BD80B500AF00F0D4F800BF80BDF3
:1005700080B500AF00F0CEF800BF80BD80B500AF01
:1005800000F0C8F800BF80BD80B500AF00F0C2F831
:1005900000BF80BD80B500AF00F0BCF800BF80BDDB
:1005A00080B500AF00F0B6F800BF80BD80B500AFE9
:1005B00000F0B0F800BF80BD80B500AF00F0AAF831
:1005C00000BF80BD80B500AF00F0A4F800BF80BDC3
:1005D00080B500AF00F09EF800BF80BD80B500AFD1
:1005E00000F098F800BF80BD80B500AF00F092F831
:1005F00000BF80BD80B500AF00F08CF800BF80BDAB
:1006000080B500AF00F086F800BF80BD80B500AFB8
:1006100000F080F800BF80BD80B500AF00F07AF830
:1006200000BF80BD80B500AF00F074F800BF80BD92
:1006300080B500AF00F06EF800BF80BD80B500AFA0
:1006400000F068F800BF80BD80B500AF00F062F830
:1006500000BF80BD80B500AF00F05CF800BF80BD7A
:1006600080B500AF00F056F800BF80BD80B500AF88
:1006700000F050F800BF80BD80B500AF00F04AF830
:1006800000BF80BD80B500AF00F044F800BF80BD62
:1006900080B500AF00F03EF800BF80BD80B500AF70
:1006A00000F038F800BF80BD80B500AF00F032F830
:1006B00000BF80BD80B500AF00F02CF800BF80BD4A
:1006C00080B500AF00F026F800BF80BD80B500AF58
:1006D00000F020F800BF80BD80B500AF00F01AF830
:1006E00000BF80BD80B500AF00F014F800BF80BD32
:1006F00080B500AF00F00EF800BF80BD80B500AF40
:1007000000F008F800BF80BD80B500AF00F002F82F
:1007100000BF80BD80B400AFFEE7000080B400AF32
:10072000044B1B680133034A136000231846BD467F
:0807300080BC704700000020AE
:080738007856341200000000A5
:04000005080001B13D
:00000001FF
